:100000000C9435000C945D000C945D000C945D0024
:100010000C945D000C945D000C945D000C945D00EC
:100020000C945D000C945D000C945D000C945D00DC
:100030000C945D000C941E020C945D000C945D0009
:100040000C945D000C945D000C94EC010C94C601C2
:100050000C945D000C945D000C945D000C945D00AC
:100060000C945D000C945D00350211241FBECFEF8F
:10007000D8E0DEBFCDBF11E0A0E0B1E0ECE0F7E0FA
:1000800002C005900D92AA31B107D9F724E0AAE188
:10009000B1E001C01D92AC3AB207E1F710E0C5E350
:1000A000D0E004C02197FE010E947E03C433D10733
:1000B000C9F70E9462020C9484030C940000AF9272
:1000C000BF92CF92DF92EF92FF920F931F93CF9345
:1000D000DF936C017B018B01040F151FEB015E01A7
:1000E000AE18BF08C017D10759F06991D601ED913C
:1000F000FC910190F081E02DC6010995892B79F7DB
:10010000C501DF91CF911F910F91FF90EF90DF908C
:10011000CF90BF90AF900895FC01538D448D252F53
:1001200030E0842F90E0821B930B541710F0CF9691
:10013000089501970895FC01918D828D981761F0C3
:10014000A28DAE0FBF2FB11D5D968C91928D9F5FDA
:100150009F73928F90E008958FEF9FEF0895FC01B9
:10016000918D828D981731F0828DE80FF11D858D6C
:1001700090E008958FEF9FEF0895FC01918D228DFF
:10018000892F90E0805C9F4F821B91098F73992784
:100190000895FC01A48DA80FB92FB11DA35ABF4F1C
:1001A0002C91848D90E001968F739927848FA68976
:1001B000B7892C93A089B1898C91837080648C93CA
:1001C000938D848D981306C00288F389E02D808179
:1001D0008F7D80830895EF92FF920F931F93CF93AB
:1001E000DF93EC0181E0888F9B8D8C8D98131AC072
:1001F000E889F989808185FF15C09FB7F894EE8959
:10020000FF896083E889F9898081837080648083B5
:100210009FBF81E090E0DF91CF911F910F91FF9000
:10022000EF900895F62E0B8D10E00F5F1F4F0F73A8
:100230001127E02E8C8D8E110CC00FB607FCFACF63
:10024000E889F989808185FFF5CFCE010E94C90038
:10025000F1CFEB8DEC0FFD2FF11DE35AFF4FF08234
:100260009FB7F8940B8FEA89FB8980818062CFCF9A
:10027000CF93DF93EC01888D8823B9F0AA89BB89DD
:10028000E889F9898C9185FD03C0808186FD0DC0C8
:100290000FB607FCF7CF8C9185FFF2CF808185FFE9
:1002A000EDCFCE010E94C900E9CFDF91CF91089533
:1002B000FC0101900020E9F73197AF01481B590B71
:1002C000BC018FE094E00C945F008F929F92AF92FC
:1002D000BF920F931F93CF93DF93CDB7DEB7A19754
:1002E0000FB6F894DEBF0FBECDBF19A2423008F49E
:1002F0004AE08E010F5D1F4F842E912CB12CA12C52
:10030000A50194010E945C03E62FB901CA01EA30FD
:10031000F4F4E05DD801EE938D01232B242B252BE3
:1003200079F790E080E0109719F0CD010E94580114
:10033000A1960FB6F894DEBF0FBECDBFDF91CF916F
:100340001F910F91BF90AF909F908F900895E95C9F
:10035000E1CF2FEF83ED90E3215080409040E1F713
:1003600000C00000109285001092840010921B01C2
:1003700010921A0110920C0410920B0481E088B9BB
:1003800083B180931C0180930E0408951F920F92F5
:100390000FB60F9211242F933F934F935F936F9358
:1003A0007F938F939F93AF93BF93EF93FF938FE0D0
:1003B00094E00E94C900FF91EF91BF91AF919F918E
:1003C0008F917F916F915F914F913F912F910F90FE
:1003D0000FBE0F901F9018951F920F920FB60F929D
:1003E00011242F938F939F93EF93FF93E0911F041A
:1003F000F09120048081E0912504F091260482FD93
:100400001BC09081809128048F5F8F7320912904F5
:10041000821741F0E0912804F0E0E15FFB4F958FF7
:1004200080932804FF91EF919F918F912F910F90CE
:100430000FBE0F901F9018958081F4CF1F920F92DE
:100440000FB60F9211248F939F9380911A01909170
:100450001B01019690931B0180931A019F918F912C
:100460000F900FBE0F901F901895EFE0F4E01382ED
:10047000128288EE93E0A0E0B0E084839583A683A7
:10048000B78384E091E09183808385EC90E0958749
:10049000848784EC90E09787868780EC90E0918B4E
:1004A000808B81EC90E0938B828B82EC90E0958B3B
:1004B000848B86EC90E0978B868B118E128E138E38
:1004C000148E0895E0911F04F091200482E080834F
:1004D000E0911B04F0911C041082E0911D04F09146
:1004E0001E0480E1808310922704E0912304F091A0
:1004F000240486E08083E0912104F091220480812D
:1005000080618083E0912104F091220480818860E1
:100510008083E0912104F0912204808180688083AF
:10052000E0912104F091220480818F7D808318B8AE
:10053000389A84B184B985B18F6385B910928000EF
:100540001092810010926F00809180008093800053
:100550008091800080938000809181008093810051
:1005600080918100826080938100789480916F00F7
:10057000816080936F000E94A901C3EBD1E090914C
:100580000E0490930D0483B180930E049817B9F371
:10059000E0910B04F0910C04F894B09B0AC016BAD9
:1005A00080911A0190911B01019690931B018093F9
:1005B0001A0180911A0190911B01209184003091C1
:1005C00085007894EE0FFF1FEE0FFF1FED54FE4FD6
:1005D000B0E0A0E0DC0199278827820F931FA11DBE
:1005E000B11DB595A7959795879580839183A28333
:1005F000B38380910B0490910C04FC01E35EFE4FE9
:1006000020910E0430910D042327208301969093AE
:100610000C0480930B048639910509F0B0CF18B80B
:1006200082E191E00E94580184E191E00E9458012A
:1006300060911C0170E090E080E04AE00E9465015A
:1006400087E191E00E9458014AE066E970E080E0AD
:1006500090E00E94650184E191E00E9458010DE163
:1006600011E083EBE82E81E0F82EF80161918F0113
:1006700070E090E080E04AE00E94650187E191E04F
:100680000E945801F70161917191819191917F01CF
:100690004AE00E94650184E191E00E945801C01780
:1006A000D10719F78FE094E00E949B0087349105F1
:1006B000C9F70E94A90163CFA1E21A2EAA1BBB1B96
:1006C000FD010DC0AA1FBB1FEE1FFF1FA217B3071E
:1006D000E407F50720F0A21BB30BE40BF50B661F34
:1006E000771F881F991F1A9469F7609570958095F8
:1006F00090959B01AC01BD01CF010895EE0FFF1F46
:0C0700000590F491E02D0994F894FFCFCF
:10070C0000000000EB005F008C003801BD009B0076
:0A071C00AF0053000D0A003A000080
:107E0000112484B714BE81FFF0D085E080938100F7
:107E100082E08093C00088E18093C10086E0809377
:107E2000C20080E18093C4008EE0C9D0259A86E02C
:107E300020E33CEF91E0309385002093840096BBD3
:107E4000B09BFECF1D9AA8958150A9F7CC24DD24C4
:107E500088248394B5E0AB2EA1E19A2EF3E0BF2EE7
:107E6000A2D0813461F49FD0082FAFD0023811F036
:107E7000013811F484E001C083E08DD089C08234E0
:107E800011F484E103C0853419F485E0A6D080C0E4
:107E9000853579F488D0E82EFF2485D0082F10E0AE
:107EA000102F00270E291F29000F111F8ED06801E7
:107EB0006FC0863521F484E090D080E0DECF843638
:107EC00009F040C070D06FD0082F6DD080E0C81688
:107ED00080E7D80618F4F601B7BEE895C0E0D1E017
:107EE00062D089930C17E1F7F0E0CF16F0E7DF06D8
:107EF00018F0F601B7BEE89568D007B600FCFDCFD4
:107F0000A601A0E0B1E02C9130E011968C91119780
:107F100090E0982F8827822B932B1296FA010C0160
:107F200087BEE89511244E5F5F4FF1E0A038BF0790
:107F300051F7F601A7BEE89507B600FCFDCF97BE46
:107F4000E89526C08437B1F42ED02DD0F82E2BD052
:107F50003CD0F601EF2C8F010F5F1F4F84911BD097
:107F6000EA94F801C1F70894C11CD11CFA94CF0C13
:107F7000D11C0EC0853739F428D08EE10CD085E9AC
:107F80000AD08FE07ACF813511F488E018D01DD067
:107F900080E101D065CF982F8091C00085FFFCCF94
:107FA0009093C60008958091C00087FFFCCF809118
:107FB000C00084FD01C0A8958091C6000895E0E648
:107FC000F0E098E1908380830895EDDF803219F02E
:107FD00088E0F5DFFFCF84E1DECF1F93182FE3DFCA
:107FE0001150E9F7F2DF1F91089580E0E8DFEE27F6
:047FF000FF270994CA
:027FFE00040479
:0400000300007E007B
:00000001FF
